:020000040800F2
:10000000000002205909000855090008BD610008D8
:1000100055090008550900085509000800000000AE
:10002000000000000000000000000000550900086A
:10003000550900080000000055090008416100084A
:100040005509000855090008550900085509000818
:100050005509000855090008550900085509000808
:10006000550900085509000855090008714F000896
:100070007D4F0008CD3E0008894F0008954F0008CD
:10008000ED5E0008A1440008550900085509000864
:1000900055090008550900085509000855090008C8
:1000A00055090008550900085509000855090008B8
:1000B000550900085509000855090008D5440008ED
:1000C00055090008E14400085509000871050108B8
:1000D00055090008DD58000885590008315A000804
:1000E00055090008550900080000000055090008DE
:1000F0005509000855090008550900087D05010843
:100100005509000855090008550900085509000857
:10011000DD5A0008895B00085509000855090008E8
:100120005509000855090008550900085509000837
:100130005509000855090008550900085509000827
:1001400000000000000000000000000000000000AF
:10015000550900085509000855090008355C0008D4
:10016000ED44000855090008516100087561000858
:10017000550900089961000855090008550900084B
:100180005509000855090008E15C00088D5D00086C
:1001900055090008550900085509000855090008C7
:1001A00055090008550900085509000855090008B7
:1001B000914C000855090008550900085509000828
:1001C0005509000855090008550900085509000897
:1001D0005509000855090008550900085509000887
:1001E0005509000855090008550900085509000877
:1001F0005509000855090008550900085509000867
:100200005509000855090008550900085509000856
:100210005509000855090008550900085509000846
:10022000550900085509000855090008000000009C
:10023000550900085509000800000000550900088C
:100240005509000855090008550900085509000816
:100250005509000855090008550900085509000806
:1002600055090008550900085509000855090008F6
:100270005509000855090008395E00080000000013
:10028000550900085509000855090008000000003C
:08029000000000005509000800
:1002980010B5054C237833B9044B13B10448AFF3B8
:1002A80000800123237010BDC0020024000000005C
:1002B8000835010808B5034B1BB103490348AFF3E0
:1002C800008008BD00000000C402002408350108B1
:1002D80081F0004102E000BF83F0004330B54FEAEF
:1002E80041044FEA430594EA050F08BF90EA020F5C
:1002F8001FBF54EA000C55EA020C7FEA645C7FEAEF
:10030800655C00F0E2804FEA5454D4EB5555B8BF11
:100318006D420CDD2C4480EA020281EA030382EA82
:10032800000083EA010180EA020281EA0303362D14
:1003380088BF30BD11F0004F4FEA01314FF4801CE7
:100348004CEA113102D0404261EB410113F0004FF9
:100358004FEA03334CEA133302D0524263EB4303B0
:1003680094EA050F00F0A780A4F10104D5F1200E4E
:100378000DDB02FA0EFC22FA05F2801841F10001A9
:1003880003FA0EF2801843FA05F359410EE0A5F17D
:1003980020050EF1200E012A03FA0EFC28BF4CF0AE
:1003A800020C43FA05F3C01851EBE37101F0004564
:1003B80007D54FF0000EDCF1000C7EEB00006EEB71
:1003C8000101B1F5801F1BD3B1F5001F0CD34908FB
:1003D8005FEA30004FEA3C0C04F101044FEA445252
:1003E80012F5800F80F09A80BCF1004F08BF5FEAD9
:1003F800500C50F1000041EB045141EA050130BDB9
:100408005FEA4C0C404141EB0101013C28BFB1F5CA
:10041800801FE9D291F0000F04BF01460020B1FA15
:1004280081F308BF2033A3F10B03B3F120020CDAE8
:100438000C3208DD02F1140CC2F10C0201FA0CF0C6
:1004480021FA02F10CE002F11402D8BFC2F1200C2B
:1004580001FA02F120FA0CFCDCBF41EA0C019040E1
:10046800E41AA2BF01EB0451294330BD6FEA04042A
:100478001F3C1CDA0C340EDC04F11404C4F1200215
:1004880020FA04F001FA02F340EA030021FA04F327
:1004980045EA030130BDC4F10C04C4F1200220FA7E
:1004A80002F001FA04F340EA0300294630BD21FABC
:1004B80004F0294630BD94F0000F83F4801306BF82
:1004C80081F480110134013D4EE77FEA645C18BF76
:1004D8007FEA655C29D094EA050F08BF90EA020F0D
:1004E80005D054EA000C04BF1946104630BD91EA05
:1004F800030F1EBF0021002030BD5FEA545C05D108
:100508004000494128BF41F0004130BD14F5800446
:100518003CBF01F5801130BD01F0004545F0FE41BA
:1005280041F470014FF0000030BD7FEA645C1ABFEF
:10053800194610467FEA655C1CBF0B46024650EA26
:10054800013406BF52EA033591EA030F41F4002152
:1005580030BD00BF90F0000F04BF0021704730B5D8
:100568004FF4806404F132044FF000054FF00001AD
:1005780050E700BF90F0000F04BF0021704730B56E
:100588004FF4806404F1320410F0004548BF404243
:100598004FF000013EE700BF42004FEAE2014FEA98
:1005A80031014FEA02701FBF12F07F4393F07F4F73
:1005B80081F06051704732F07F4208BF704793F076
:1005C8007F4F04BF41F40021704730B54FF4607489
:1005D80001F0004521F000411CE700BF50EA01028C
:1005E80008BF704730B54FF000050AE050EA010235
:1005F80008BF704730B511F0004502D5404261EBA5
:1006080041014FF4806404F132045FEA915C3FF4E5
:10061800D8AE4FF003025FEADC0C18BF03325FEA82
:10062800DC0C18BF033202EBDC02C2F1200300FA33
:1006380003FC20FA02F001FA03FE40EA0E0021FA58
:1006480002F11444BDE600BF53B94AB9002908BFF6
:1006580000281CBF4FF0FF314FF0FF3000F074B995
:10066800ADF1080C6DE904CE00F006F8DDF804E001
:10067800DDE9022304B070472DE9F047089D0446E0
:100688008E46002B4DD18A42944669D9B2FA82F23D
:1006980052B101FA02F3C2F1200120FA01F10CFA79
:1006A80002FC41EA030E94404FEA1C48210CBEFBB1
:1006B800F8F61FFA8CF708FB16E341EA034306FB3A
:1006C80007F199420AD91CEB030306F1FF3080F0C9
:1006D8001F81994240F21C81023E63445B1AA4B216
:1006E800B3FBF8F008FB103344EA034400FB07F7B8
:1006F800A7420AD91CEB040400F1FF3380F00A81F9
:10070800A74240F207816444023840EA0640E41BED
:1007180000261DB1D4400023C5E900433146BDE899
:10072800F0878B4209D9002D00F0EF800026C5E93B
:10073800000130463146BDE8F087B3FA83F6002E53
:100748004AD18B4202D3824200F2F980841A61EBCB
:10075800030301209E46002DE0D0C5E9004EDDE7E9
:1007680002B9FFDEB2FA82F2002A40F09280A1EBD1
:100778000C014FEA1C471FFA8CFE0126200CB1FB26
:10078800F7F307FB131140EA01410EFB03F088421F
:1007980008D91CEB010103F1FF3802D2884200F2AC
:1007A800CB804346091AA4B2B1FBF7F007FB10113E
:1007B80044EA01440EFB00FEA64508D91CEB0404DC
:1007C80000F1FF3102D2A64500F2BB800846A4EB37
:1007D8000E0440EA03409CE7C6F12007B34022FA22
:1007E80007FC4CEA030C20FA07F401FA06F31C4351
:1007F800F9404FEA1C4900FA06F3B1FBF9F8200C5E
:100808001FFA8CFE09FB181140EA014108FB0EF0A3
:10081800884202FA06F20BD91CEB010108F1FF3AF3
:1008280080F08880884240F28580A8F102086144FF
:10083800091AA4B2B1FBF9F009FB101144EA01410D
:1008480000FB0EFE8E4508D91CEB010100F1FF34B8
:100858006CD28E456AD90238614440EA0840A0FB50
:100868000294A1EB0E01A142C846A64656D353D026
:100878005DB1B3EB080261EB0E0101FA07F722FA4A
:1008880006F3F1401F43C5E9007100263146BDE873
:10089800F087C2F12003D8400CFA02FC21FA03F3D6
:1008A800914001434FEA1C471FFA8CFEB3FBF7F057
:1008B80007FB10360B0C43EA064300FB0EF69E427C
:1008C80004FA02F408D91CEB030300F1FF382FD215
:1008D8009E422DD9023863449B1B89B2B3FBF7F6BD
:1008E80007FB163341EA034106FB0EF38B4208D996
:1008F8001CEB010106F1FF3816D28B4214D9023ED7
:100908006144C91A46EA004638E72E46284605E7F4
:100918000646E3E61846F8E64B45A9D2B9EB0208C5
:1009280064EB0C0E0138A3E74646EAE7204694E755
:100938004046D1E7D0467BE7023B614432E7304688
:1009480009E76444023842E7704700BFFEE700BF8A
:100958000B480C4A904203D0121A0B4912F0BEF908
:100968000A480B4A904203D0121A002112F0C4F927
:1009780005F0D2FD12F08EF900F0F6F9FEE700BF9F
:1009880000000024BC02002434350108C002002401
:10099800844D0624704700BF704700BF704700BFF2
:1009A800704700BF704700BF704700BF30B500F503
:1009B800003483B00546D4ED187AF4EE407AF1EEAF
:1009C80010FA03D194F82430002B59D0F0EEC06A05
:1009D8002F4AF2EE085A48F22201BFEE007A94ED4F
:1009E8000A6AB5EEC00A84ED180AC6EEA57A9FED2C
:1009F800295AFCEEE66AF1EE10FACDED016A9DF88F
:100A08000430D4ED086AA2FB0302F8EE666A4FEAE6
:100A1800D20202EB4202FCEEE77AA3EB8203CCBFE0
:100A28000122002251FA83F3CDED017A05EB83030D
:100A3800D3ED005A9DF8043084F82C20013307EEDA
:100A4800903AF8EEE77AA5EEA77A67EE067A87EE8F
:100A5800A60AB4EEC50AF1EE10FA13D484ED070A1B
:100A68000D48284410F0CAFF0C4894ED070A2844A2
:100A780010F0C4FF94F8243013B1002384F8243014
:100A880003B030BDB0EE450A84ED075AE8E700BF71
:100A9800ABAAAAAA00000000300002004000020031
:100AA800F8B50546A7480E46284405F500342DED4F
:100AB800088B10F0B3FFA448F0EE409A284410F0D9
:100AC800ADFFD4ED1C7AF0EE40AAF4EEE97AF1EE2F
:100AD80010FA00F3F580236AD4ED205A94ED1A7ABF
:100AE800D4ED1D7AF4EEEA7AF1EE10FA00F3A5805F
:100AF800D4ED216AD4ED1B7AD4ED1E8A94ED1F8AB9
:100B080037EE687A94F82C2077EEC87AC4ED1C9AF0
:100B1800C4ED1DAAE7EE258AA7EEA68AC4ED1E8AB3
:100B280084ED1F8A2AB1F7EE007A77EEE99A77EE1C
:100B3800EAAA013B9FED85BA09EE103A29EE8B0A25
:100B4800B8EE499A69EE299A29EE2A9AC4ED169ABE
:100B580078EEA98A84ED179A38EE098A11F030FFE9
:100B6800B0EE40AA2AEE8B0A84ED14AA11F028FFF1
:100B7800BDEEE87A6A6843F6FF73FDEEC87A84ED45
:100B8800150A05EB8201D6F800C017EE104A1A4480
:100B9800C1F80CC017EE900A05F580319C42C2F3EB
:100BA8000D02F8EEC75A28BF1C4698426A60B8EE94
:100BB800E76A0E6928BF184678EEE58A224433446E
:100BC80001EB860638EE468AC3F30D03C6F818C053
:100BD800F0EE406A9FED5E0A0B610344C5ED008AA2
:100BE800AC604861C2F30D00013281ED038A05EB68
:100BF8008000C2F30D0290ED037A581C05EB8202C7
:100C0800C3F30D0392ED036AC0F30D0201EB8303F6
:100C180036EE476A01EB8202D3ED067AA8EE867AB1
:100C280092ED066A36EE676AE8EE067AAAEE070AD9
:100C3800BDEC088BA6EEA70AF8BD464F46493A68B0
:100C48009FED465A82EA4232D4ED193A9FED446A42
:100C580082EA5242DFED434A82EA421282EA423095
:100C680080EA504080EA40103860A1FB027CA1FB7A
:100C780000714FEADC1CC909CCEB0C2CC1EB01213B
:100C8800A2EB0C02411A07EE902AF8EEE76AC6EECC
:100C9800857A06EE901AF8EEE66A86EE854A06EE42
:100CA800903AFBEEEF6A67EEA37A67EEA67AF0EE6B
:100CB800466AC4ED1B7AE4EE246AC4ED216A1BE798
:100CC800244F25483A68DFED256A82EA4232236AD2
:100CD80094ED194A82EA52429FED226ADFED205ACA
:100CE80004EE903A82EA4212FBEEEF4A82EA42317F
:100CF80081EA514181EA41113960A0FB027CA0FBE5
:100D080001704FEADC1CC009CCEB0C2CC0EB0020B6
:100D1800A2EB0C02081A07EE902AF8EEE77A87EEA3
:100D2800A67A07EE900AF8EEE77A87EEA65A27EE3B
:100D3800047A27EE247A84ED1A7AE5EE065AC4ED91
:100D4800205ACDE63000020040000200DB0F494087
:100D580000000000040000248180808000007F43A0
:100D680017B751396F12833A2DE9F04F002100244B
:100D7800DB480125DFF80894DFF80884DFF808A4C9
:100D8800D84FD94E2DED048B8BB001F0FDF9D44826
:100D980001F02AF9D54A2146D548F0EE408A11F0EB
:100DA800ABFFD24A214609F10C00CAE9014511F00E
:100DB800A3FFCE4A214608F10C00C9E9014511F00C
:100DC8009BFFCA4A214607F10C00C8E9014511F00A
:100DD80093FFB0EE680AC748BD6006F188057C60DD
:100DE80010F03AFEB0EE680AC34810F035FEB0EED7
:100DF800680AC24810F030FEB0EE680AC04810F029
:100E08002BFEB0EE680ABF4811F0CCF8B0EE680AC5
:100E1800BD4811F0C7F8BD4B86F82440F361C6ED14
:100E28000A8A07EE904AB2EE088A0134B0EE000A48
:100E3800F8EEE70AC0EE880A11F02EFC0C2CA5EC9F
:100E4800010AEED10021B24D4FF0010B9FEDB19A8E
:100E58000C464FF4803205F10C0086ED149A11F01F
:100E68004BFF9FEDAD0AAD48C6ED0D8A86ED0F9A92
:100E7800C5E9014B10F0C2FD4FF480322146A84865
:100E880086ED159A11F038FF05F580339FEDA20A1B
:100E9800A448C6ED118AC3E9044BA34BF36410F0D0
:100EA800ADFD96ED187AA14AF0EEC77A86F82CB017
:100EB800B4EEC97A86F824B0C7EE886AFCEEE77A01
:100EC800F1EE10FACDED007A9DF80030A2FB031286
:100ED8004FEAD20202EB4202FCEEE67AA3EB82036F
:100EE80048F2220252FA83F3CDED017A05EB83032F
:100EF800D3ED006A9DF804305B4407EE903A4FF456
:100F08008043F8EEE77A336267EEA67A01DC86F86A
:100F18002C40B7EE006AD6ED0A6A9FED857A002369
:100F28007E4877EEC67A67EEA67A67EE877AF5EEA0
:100F3800C07AF1EE10FA4CBFF361C6ED077A96ED70
:100F4800070A10F05BFD96ED070A764810F056FD8B
:100F580096F8243013B1002386F82430B7EEE87AE7
:100F6800744C02AD9FED6B8ADFED730A86ED198A2A
:100F7800DFF818B29FED586B0FCC27EE067B0FC534
:100F880094E80F00B7EEC70B85E80F00022202A90C
:100F98006A4802F015FCF6EE087A9FED697A694B0B
:100FA80068EEA78ADFED687A68499FED690AFDEE69
:100FB800E86AC3ED008A38EE877A4E4878EEA77A59
:100FC80016EE903AB8EEE65AFDEEC75A8B42BDEEE1
:100FD800E76A38EEC55A15EE902A28BF0B46B8EED8
:100FE800E54A8A42CAF80830C9F8083016EE103ABD
:100FF800F8EEC64A28BF0A468B4237EE447A8AED95
:10100800005A28BF0B4677EEE47A89ED005ABB6098
:10101800504B88ED007AC7ED007AC8F80820C3ED78
:10102800008A10F0ADFF9FED4C0A324810F078FFAF
:101038009FED470A304810F0A3FF9FED480A2E485D
:1010480010F06EFF9FED420A2C4810F099FF9FEDBB
:10105800440A2A4810F064FF9FED3D0A284810F022
:101068008FFF9FED400A264810F05AFF04212548BB
:10107800CBF8001011F0A6F8DBF80010224811F0A8
:10108800A1F8394B394AB2EE080A83ED008A384B89
:101098001F4883ED008A374B82ED008A83ED008A72
:1010A800FFF784FC4FF480733349012296ED180A48
:1010B80017480B60336286F82420FFF777FCA4F109
:1010C800680000F093FF2D49A4F1680000F08AFF42
:1010D8005EE000BFAFF300809A9999999999A93F6A
:1010E800384E0024000000C0E40D0424005307001B
:1010F80030F915C0DC0200249C0E0424F85904249D
:1011080054A504245CE00024B0F004240000A040AE
:10111800E40D02240000000000004842140E0424DC
:10112800FC0D0324240E0424DB0F4940ABAAAAAA11
:1011380000008038904E00240060EA47381E0624DC
:101148000000FA43741E062400007A44BFD401004C
:10115800CDCCCC3D701E06243333333F85EB513F55
:101168006666663FEC51783F801E0624841E06247E
:10117800881E06248C1E0624981E0624251E000898
:1011880018A60EC00C5307C024F915C0941E0624D7
:10119800FEE700BF0000000038B5044660480D4671
:1011A8002DED028B02F07AFA5E4884ED000A02F017
:1011B80075FA5D4B85ED000A1B68042B07D8DFE83C
:1011C80003F00977839D03002268584B1A60BDEC31
:1011D800028B38BD2268554B55481A6002F020FB37
:1011E800544BDFED555A83ED000AB1EE000A95ED38
:1011F800007A94ED006AB7EEC77A504BB7EEC66A2C
:101208004F489FED508ADFED508A9FED413B9FED9F
:10121800424B27EE037BA6EE047BB7EEC77B83ED3C
:10122800007AD4ED007AA7EEA50A10F023FEB1EEFD
:10123800040A94ED007ADFED457A4548A7EE270ABF
:1012480010F018FEB1EE080AD4ED007A4148A7EE76
:10125800880A10F00FFEB1EE0C0AD4ED007A3E4871
:10126800A7EEA80A10F006FE95ED000ADFED3B7A1E
:10127800334820EE270A10F019FE95ED000ADFED3D
:10128800387A334820EE270A10F010FE95ED000A50
:10129800304820EE280A10F009FE95ED000A2E4885
:1012A80020EE080ABDEC028BBDE8384010F0FEBD08
:1012B8001F4802F0B5FA1F4A204B82ED000A2A683F
:1012C800BDEC028B1A6038BDB1EE000AD4ED007A8D
:1012D8009FED197A154BA7EE870A1948C3ED007AD6
:1012E80010F0C8FD9FED178AB1EE040A94ED007A5C
:1012F800DFED167A1648DFED148A9FE721680B4A5E
:10130800184B11602A68BDEC028B1A6038BD00BF0B
:101318009A9999999999B93F9A9999999999C93F97
:10132800904E0024B04E0024901E0624781E0624F9
:10133800381E0624741E0624CDCC8C3F7C1E062441
:10134800DC0200246666663FCDCC4C3F9A99993FF3
:101358009C0E0424F859042454A504249A99193F8E
:101368003333333F881E062410B5284CB0EE401A9C
:101378002368022B2DED028BB0EE608A3DD09FEDE5
:10138800240A012B21EE000A41FE000A032B18BF94
:10139800002B20480CBF0123002307EE903AF8EEFB
:1013A800E77A27EE811A02F0B9FA2368032B29D0CD
:1013B8009FED170A28EE000A33F0040216480CBF06
:1013C80001220022042B18BF022B01EE102A0CBFA9
:1013D80001230023B8EEC11A07EE903AF8EEE70AA7
:1013E80021EE081A60EE880A02F098FA0B48BDEC64
:1013F800028BBDE8104000F019BEDFED050A60EE73
:10140800200AC3E7B0EE480AD6E700BF901E0624BC
:1014180000000000F84E00244C4F0024384E0024F1
:1014280030B50023184D194883B0194A194903608B
:1014380028460B60136000F0DDFD174C284600F0CD
:10144800E5FD01A96846FFF7A7FE22686B6D134802
:1014580013441349DDED010A80FB0320DA179DEDE3
:10146800000AC2EB600202EB82029B1A0533A1FB61
:10147800031222F0030101EB92029B1A2360FFF78B
:1014880073FF03B030BD00BF384E0024781E062419
:10149800741E06247C1E0624901E06246766666653
:1014A800CDCCCCCCCA4BCB4AD3ED007A92ED007AA6
:1014B8009FEDC96A37EE677ADFEDC86A2DE9F04F0C
:1014C800E7EE067A07460E46C548C64947F2315E3A
:1014D800C54D4A68BDEEE77A96442DED088B17EEA8
:1014E80010AAC3ED007AB8EEC77AC04B85B0C1ED3B
:1014F800006A9A45F0EE608A77EEC77A029228BFB2
:101508009A4647F23053F0EE40AA9FEDB98AC0EDF3
:10151800007A02EB030CC0F808A0B0EE009A40680D
:10152800B6EE00AA8B60F7EE009AB24B0AEB000801
:10153800B14AA3FB084B08F1010903904FEADB3BD2
:10154800A748C5ED007A02FB1B8844F6216BC5F855
:1015580008A000EB880898ED037AA3FB09484FEA36
:10156800D83802FB1899A3FB0C4800EB89094FEA0D
:10157800D83899ED036A02FB18CCDFF8888236EE7A
:10158800476A01EB8C0CD8F80490C8ED006AA7EE06
:10159800867ADCED037AA3FB0E4C6C68CB444FEAE9
:1015A800DC3CA244019402FB1CEE44F6206CA3FB35
:1015B8000A408B4C01EB8E0EC8F808C0C00BCC4417
:1015C8009EED036A0AF1010E02FB10AA36EE676A65
:1015D80005EB8A0AE6EE267A77EE877AC7ED007A77
:1015E800DAED037AA3FB0E0AD5ED005A4FEADA3A90
:1015F80098ED006A02FB1AEE05EB8E0EDEED036A2B
:10160800A3FB0CAEDFF800A276EEE76A4FEADE3EF7
:1016180002FB1ECCE6EEA57A08EB8C0CB0EE677ADE
:10162800DCED037AA3FB0BEC4FEADC3C02FB1CBCB1
:10163800DFF8D8B108EB8C0CDCED036A76EEE76ACC
:10164800E6EE867A77EE877AB0EE407AC6ED007AD3
:10165800D7ED006ADAED007A0398A6EEA77A04EBD4
:10166800800C8CED037AB0EE407ADFF880C1D7EDBC
:10167800006A8444A7EEA67AA3FB0C0E4FEADE3E6E
:1016880002FB1ECCC4F804C0029CDFF860C101EB69
:101698008400A444019C80ED037AB0EE607AD6ED14
:1016A800006A05EB8400A7EEA67A80ED037AB0EE17
:1016B800607AD6ED006A4D48A7EEA67A20184B4C02
:1016C8004C4408EB890989ED037AA3FB0C9EDFF8EB
:1016D80040914FEADE3E02FB1ECCC1F804C0A3FBDA
:1016E80000C1A3FB04C3C90BDB0B02FB110002FB07
:1016F800134468605846C8F8044010F077FADFF8D9
:101708001481B0EE680A3D4D40463D4C10F06EFA2B
:101718004846B0EE6A0A10F069FA2846B0EE680A40
:1017280010F064FA584610F099FB94ED00BA484658
:1017380020EE0BBA10F092FB94ED006A40469AED49
:10174800007A60EE067AD7ED006A7AEE465A67EEBE
:10175800266A77EEA77A39EEC77A66EE866AEBEEE6
:10176800097A27EE2A7AE5EEAA7AE6EE887AE6EE94
:10177800077AC7ED007A10F077FBD4ED00AA284667
:1017880060EE2AAA10F070FB94ED007ADAED006A98
:1017980020EE070AD6ED007A3AEE47AA66EEA77A57
:1017A80030EE000A79EEE69A67EE877AAAEE890AA1
:1017B80069EEA89AAAEE280AA7EE880AA7EE290ACF
:1017C80086ED000A05B0BDEC088BBDE8F08F00BFC0
:1017D800701E0624741E0624F7CC92380000000000
:1017E80024F915C00C5307C018A60EC0BFD40100B9
:1017F8009A99193F73B2E745C0D4010054A504244F
:10180800781E0624000000C07C1E0624DC0200248A
:10181800F85904249C0E0424954B964AD3ED007A7B
:1018280092ED007ADFED946A37EE677A9FED936A5E
:101838002DE9F04FE7EE267A914F924E85B07C68FD
:1018480047F2315E7268B7EE007A009196440292D0
:10185800FDEEE76AC3ED007A8B4B8C4D16EE90AA2D
:10186800F8EEE66A03949A4586ED006A77EEE67A22
:1018780028BF9A4647F230530AEB040802EB030CE0
:10188800B360834B08F10109824AA3FB081BC5ED2D
:10189800007A4FEADB3BC7ED007AC5F808A002FBE7
:1018A8001B8844F6216BC7F808A007EB8808D8ED19
:1018B800036AA3FB09184FEAD83802FB1899A3FB5F
:1018C8000C1807EB89094FEAD838D9ED035A02FBFF
:1018D80018CCDFF8C49175EEE65A06EB8C0C89ED4E
:1018E800006AE7EEA56ADCED037AA3FB0E1C6968C3
:1018F8004FEADC3C8A44019102FB1CEE0AF1010824
:10190800A3FB0A4144F6206C06EB8E0EC90BC9F8FE
:1019180008C0DEED035A02FB11AAD9F804E075EEFF
:10192800E75A009905EB8A0AF444F344E5EE867A0F
:1019380077EEA67AC0ED007ADAED037AA3FB084ABF
:1019480095ED005A4FEADA3AD9ED005A02FB1A88A7
:10195800DFF848A105EB880898ED036AA3FB0C485B
:1019680036EE676A4FEAD83802FB18CCE6EE057AFD
:1019780009EB8C0CF0EE676ADCED037AA3FB0B4CE9
:101988004FEADC3C02FB1CBC09EB8C0C9CED036AA7
:1019980036EE676AE6EE257AB0EE406A77EEA67A0A
:1019A800C1ED007AD0ED007ADAED006A039CA7EE6B
:1019B800A66A029907EB840C77EE667A67EE807A5E
:1019C8008CED036ADFF8C0C090ED006AA444A6EE6F
:1019D800860AA3FB0C484FEAD83802FB18CCC7F894
:1019E80004C006EB810787ED030A274F90ED006AD4
:1019F800CF190199E6EE867AA3FB074CF0EE606AF0
:101A0800214C4FEADC3C744409EB8E0E02FB1C7738
:101A18007760009FC0ED007A05EB810097ED006AC2
:101A2800DAED007AE6EE276A37EE677A27EE207A53
:101A3800C0ED036AD7ED006A1348E7EEA60A081856
:101A4800A3FB0016A3FB0413F60BCEED030ADB0B76
:101A5800D7ED006A02FB160002FB1344A7EEA67A34
:101A68006860C9F8044087ED007A05B0BDE8F08FDA
:101A7800701E0624741E0624F7CC9238000000005D
:101A880024F915C00C5307C0BFD4010018A60EC016
:101A980073B2E745C0D40100000000C07C1E0624D4
:101AA8002DE9F047DFF8E0A00646DFF8E0800D46B4
:101AB8005046DFF8DC90324F324C2DED088BF0EEBB
:101AC800608AB0EE40BA10F091F84046B0EE049B40
:101AD800B0EE680A10F08AF8B0EE4B0A4846B6EE47
:101AE800008A10F083F8B0EE680A384610F07EF8E5
:101AF800504610F0B3F994ED00AA484620EE0A0AC1
:101B0800B7EEC0AA10F0AAF9D4ED007A404620EE4C
:101B1800275A78EE677AB7EEC55A27EE8B4A25EE34
:101B2800095BB7EEC44AAAEE095B34EE055BB7EE73
:101B3800C55B86ED005A10F097F994ED00AA384677
:101B480020EE0A0AB7EEC0AA10F08EF994ED006AEA
:101B580020EE067A38EE466AB7EEC77A66EE280AAD
:101B680027EE097BB7EEE06AAAEE097BBDEC088B8D
:101B780036EE077BB7EEC77B85ED007ABDE8F087C8
:101B880054A50424781E0624DC0200249C0E042498
:101B9800F8590424000000002DE9F84FDFF898B147
:101BA8008046DFED5B6A0E46DBED007A594F77EE33
:101BB800E65A594DDFF884913846DFF884A1574C2E
:101BC8002DED068B9FED569AB0EE40AAF0EE608A96
:101BD800E5EE896AB7EE008AB0EE660ACAED006AD9
:101BE80010F018FC95ED000AD9ED007A384677EE2A
:101BF800C07AA7EE890A85ED000A10F0EFFA9FED8A
:101C0800490A384610F03AFC9FED470A204610F082
:101C180035FCB3EE0E0A384610F012FB9FED430A6E
:101C2800204610F00DFBDBED007A9FED410A2046BF
:101C380077EEC07AA7EE890A8AED000A10F0EAFB6F
:101C480095ED000A2046D9ED007ADFF8F89077EE96
:101C5800C07AA7EE890A85ED000A10F0BFFA354D63
:101C6800B0EE4A0A48460FF0C1FF484610F0F6F8B1
:101C780095ED009A384620EE099AB0EE4A0A10F01F
:101C880007FAD5ED007AB6EE005B484620EE277AD3
:101C980078EE677AB7EEC99A27EE8A0AB7EEC77A5E
:101CA800B7EEC06AA9EE057B36EE076BB7EEC66BDA
:101CB80088ED006A10F0D8F8B0EE409AD5ED007AB9
:101CC800B0EE680A204629EE279A10F0E1F9D5ED22
:101CD800000A20EE200AB7EEC99A38EE608AB7EEFD
:101CE800C06A9FED095B68EE280AA9EE056BB7EE9E
:101CF800E07ABDEC068B37EE067BB7EEC77B86ED48
:101D0800007ABDE8F88F00BF333333333333D33F22
:101D180000C0DA455CE00024881E0624B0F00424E4
:101D280017B7D138CDCC4C3E9A99993E0000204245
:101D380000007A45781E0624841E06248C1E06247C
:101D4800801E0624DC0200242DE9F041DFF8C8805B
:101D580006462F4C0D4640462E4F2DED068B82B081
:101D6800B7EE008ACDED000A8DED010A10F076F885
:101D780094ED00AA01A9384620EE0A0A9FED229B9D
:101D8800B7EEC0AAFEF78CFED4ED007A40469DED72
:101D9800017A20EE270A78EE677AB7EEC00A67EE76
:101DA800877AAAEE090BB7EEE77A37EE007BB7EE33
:101DB800C77B86ED007A10F057F894ED00AA6946C3
:101DC800384620EE0A0AB7EEC0AAFEF769FED4ED3F
:101DD800007ADDED006A20EE270A38EE678AB7EE52
:101DE800C00A28EE268AAAEE090BB7EEC87A37EEA3
:101DF800007BB7EEC77B85ED007A02B0BDEC068BA1
:101E0800BDE8F081AFF300809A9999999999C93FF3
:101E1800781E0624E40D0224DC0200242DE9F0419A
:101E2800174682B005460C46FFF7FAFA17B3013F8A
:101E38000026DFF888807F08D8F8003095ED000A82
:101E4800D5ED010A042B34D8DFE803F02C251E1742
:101E5800030001A96846FFF777FF009A019B6360BA
:101E6800BE4206F10103226005F1080504F10804E9
:101E78001E46E1D102B0BDE8F08101A96846FFF72E
:101E88008BFE009A019BEAE701A96846FFF708FE66
:101E9800009A019BE3E701A96846FFF7BDFC009A99
:101EA800019BDCE701A96846FFF7FCFA009A019B51
:101EB800D5E700231A4601930093D0E7901E062425
:101EC80032480022324938B500F5104302604261B9
:101ED800C3F81022C3F818220262C0F868212D4AFC
:101EE8002D4CC3F81C224FF60F02B1F800C0A3F81E
:101EF800202207228988294D83F822222246A3F826
:101F08001612A3F814C2264910F0EAFA2246294606
:101F1800244810F0E5FA22462946234810F0E0FA52
:101F280022462946214810F0DBFA22462946204855
:101F3800204D10F0D5FA22461F49204810F0D0FA5B
:101F4800224629461E4810F0CBFA29461D4D224646
:101F58001D4810F0C5FA224629461C4810F0C0FA60
:101F6800224629461A4810F0BBFA22462946194843
:101F780010F0B6FA22462946174810F0B1FA224660
:101F880016491748BDE8384010F0AABA384E002460
:101F9800102D010880707FF0000000249D090008C2
:101FA800AD090008DC0200249C0E0424F85904241E
:101FB80054A50424A1090008A5090008E40D022479
:101FC8005CE00024B1090008B0F0042424F915C02D
:101FD80018A60EC00C5307C0000000C0A9090008CD
:101FE800381E062400F074B900F076B9183001F0F4
:101FF800FDBE00BF10B50446583001F04FFB04F198
:102008007800BDE8104001F049BB00BF10B5044698
:102018003C3001F0A5FB04F1A00001F0D1FC04F173
:10202800AC00BDE8104001F0CBBC00BF10B50446C1
:10203800C03001F0A3FC04F58A70BDE8104001F03F
:102048009DBC00BFF0B504468DB01420012500F0FA
:1020580029F90346132004F1C007ADF80C3000F04D
:1020680021F90346122004F58A7406AEADF8103043
:1020780000F018F90399ADF8140038460095DDE929
:10208800042301F023FC112000F00CF9034618206A
:10209800ADF80C3000F006F9ADF81000172000F08C
:1020A80001F9ADF81400059B2046049A03990095A0
:1020B80009AD01F00BFC3046072104F067FB96E8F8
:1020C800070085E807002946384601F041FC96E8F4
:1020D800070085E807002946204601F039FC384604
:1020E80001F04CFC20460DB0BDE8F04001F046BCC4
:1020F8002DE9F04104461520002504F1180704F1E4
:1021080098062DED028B8EB09FED1E8A00F0CAF85E
:10211800034605A8ADF80C30039901F075FC0F20B3
:1021280000F0C0F803460DF12500ADF81030049911
:1021380001F06AFC0423022205A9384601F072FC6A
:1021480004F1580204F17803C4E9262329463846E5
:1021580056F8048B01F060FE01462046019100F01C
:10216800DBF80023F0EE480A019940461A4601F0D0
:1021780077FA25B10EB0BDEC028BBDE8F0810125E0
:10218800E4E700BF6F12033B70B59FED430A8EB0C2
:1021980004468DED010A009100F082F8009920466E
:1021A80000F026F91B2000F07DF8034604F1A00694
:1021B8009DED010AADF8143004F1AC0505993046DF
:1021C8008DED000A01F0E8FB1C2000F06BF8ADF87B
:1021D80018009DED000A2846069901F0DDFB1A203B
:1021E800C4E92E6500F05EF8034619200025ADF815
:1021F8000C3000F057F803460D2004F51046ADF8F2
:10220800103000F04FF8ADF81C0004F13C009DEDD3
:10221800000A049A0399079B01F07CFA2046FFF70D
:1022280011FF2046FFF764FF01231C4A47F61221DD
:10223800099349F218200C9303F1E0630D912044AF
:1022480003F5833307A90A95CDE907350223C6E9C3
:1022580084520B9303F04CFE0A23C6F80452302133
:10226800C6F80052204684F8703184F86C5100F0AA
:1022780037F8D4F89850204600F04EF8284601F078
:1022880031FAD4F89C50204600F046F828460EB0A3
:10229800BDE8704001F026BA000000000107010601
:1022A800704700BF1F2882B009D8084B03EB4002D3
:1022B80013F81030507843EA002002B07047012329
:1022C8000C2043EA002002B0704700BF542D0108DB
:1022D800143001F0A7B900BF143001F09FB900BF56
:1022E80038B500F1140504462DED028B284601F09F
:1022F80087F9284601F092F92846B0EE408A01F0A5
:102308007BF9D0ED007AF8EE677A88EE277ABDEC93
:10231800028B84ED0E7A38BD90ED0E0A704700BF2F
:10232800F0B5032399B000270125129306462C4BDC
:1023380009A81595CDE90E7340F20453ADF8403065
:10234800284BCDE91357099301F068FE09A801F05D
:1023580041FF002835D1244B04AF04460090CDF846
:1023680042301023394604958DF820301F4BCDE9B3
:102378001650CDE906506846059302F0B9F80823CF
:10238800009A01A909A8ADF804508DF806400994EF
:102398000295039300F0E4F800230EA93846302490
:1023A800049302F06DFE03224FF07E5309A906F153
:1023B80014000B93CDE90942049A01F0EBF819B027
:1023C800F0BD40F60132084B169704AFADF8242053
:1023D8000998CDF84230179500F082F8DCE700BF85
:1023E8000402040403030001040604030704010BA8
:1023F8002DE9F04304462DED028B83B0002948D027
:10240800012140F2011200230091ADF804208DF85B
:102418000630304A0126304B271D304904F129087F
:10242800626040F20272A36040F60663E16004F164
:1024380025092682A4F8252084F82760A4F82930E5
:1024480084F82B6004F01EF86946054648B304F189
:1024580030008DF8066003F07DFF072D34D104F1BC
:1024680014052046FFF75CFF284601F0D7F82846F8
:10247800B0EE408A01F0C0F8D0ED007AF8EE677A45
:1024880088EE277A84ED0E7A03B0BDEC028BBDE8A6
:10249800F08340F2011300918DF80610ADF8043076
:1024A800B7E704F1300003F055FF3946204602F043
:1024B80067FA484601F0B2FD404601F0AFFD04F16D
:1024C800120000F077F9CAE73946204602F058FAB8
:1024D800C5E700BF0508050905070506050A06063C
:1024E80010B584B003460124ADF8040003A8ADF884
:1024F8000C30ADF80E4001F091FD214603A801F023
:1025080077FE204603F05AFE002103A801F070FE72
:10251800204603F053FE214603A801F069FE04B0EB
:1025280010BD00BF10B5C2F3002384B00C46017C77
:102538008DF80D2043EA4402FA2402238DF80C207A
:1025480003AA009402F06AF818B10124204604B0E6
:1025580010BD04460A2003F031FE204604B010BD29
:10256800034670B543F8042B044684B007C983E8D2
:102578000700A37983B91A210B461E22FA25237472
:102588002046ADF80C20022303AA009502F046F875
:1025980028B1012004B070BD1B210B46EDE70A20CD
:1025A80003F00CFE4FF4B85200950223ADF80C204E
:1025B800204603AA217C02F031F80028E9D10A203C
:1025C80003F0FCFD41F2027200950223ADF80C20E5
:1025D800204603AA217C02F021F80028D9D10A203C
:1025E80003F0ECFD042200950223ADF80C202046F0
:1025F80003AA217C02F012F80028CAD10A2003F0AD
:10260800DDFD062200950223ADF80C20204603AA22
:10261800217C02F003F80028BBD10A2003F0CEFD8C
:1026280041F2082200950223ADF80C20204603AAA7
:10263800217C01F0F3FF0028ABD10A20064603F005
:10264800BDFD0095022303AA217C2046ADF80C604D
:1026580001F0E4FF00289CD1304603F0AFFD00955F
:1026680022790C232046002A8DF80C3003AA4FF05B
:10267800020314BF622142218DF80D10217C01F064
:10268800CDFF002885D1304603F098FD2279D4E9A2
:1026980002310B43DBB20AB943F0400362790AB155
:1026A80043F020030E22FA258DF80D3020460095C0
:1026B80002238DF80C2003AA217C01F0AFFF00282B
:1026C8007FF467AF0A2003F079FD102200950223FA
:1026D800ADF80C20204603AA217C01F09FFF0028BA
:1026E8007FF457AF0A2003F069FD122100950223F9
:1026F800ADF80C1003AA217C204601F08FFF0028BA
:102708007FF447AF0A2003F059FD01220921204632
:10271800FFF708FF003818BF01203BE7F0B510238A
:1027280087B0234C012200250126002702A9204654
:102738000195CDE902234FF48052CDE904670AF0F0
:1027480069FC642004F054F902A94FF48052204631
:10275800CDE9046702261027CDE902670AF05AFC82
:102768000322102302A92046CDE9022300230422D4
:10277800CDE904234FF480520AF04CFC40F2322396
:10278800042202A9019310232046CDE90223019ACD
:10279800012305924FF4805204930AF03BFC40F663
:1027A800060120460AF056FC284607B0F0BD00BFD7
:1027B800A41E06241C4B00221C494FF0400C30B5C7
:1027C800054689B00220596007219A601A620124DF
:1027D800DA620A224FF4006EDC6006922022CDE90C
:1027E800000104200821CDE9020103201021CDE9D0
:1027F800040108206946C3E904024FF4C072181D99
:10280800C3E906C24FF48052C3E909E20AF0D8FBD3
:1028180038B92846FFF782FF003818BF012009B0F1
:1028280030BD204609B030BDA01E062440410052EC
:10283800614A0021D0B513688EB00A91002B40F090
:10284800B9805E4B01214FF683700C241160022180
:10285800D3F8D4200026032742F48052C3F8D420AA
:10286800D3F8D42002F480520092009AD3F8E020E2
:1028780042F01002C3F8E020D3F8E02002F0100282
:102888000192019AD3F8E02042F04002C3F8E02018
:10289800D3F8E02002F040020292029AD3F8E02036
:1028A80042F00802C3F8E020D3F8E02002F0080262
:1028B8000392039AD3F8E02042F48072C3F8E02030
:1028C800D3F8E02002F480720492049AD3F8E0204E
:1028D80042F08002C3F8E020D3F8E02002F0800242
:1028E8000592059AD3F8E02042F02002C3F8E020D0
:1028F800D3F8E02002F020020692069AD3F8E020EE
:1029080042F00402C3F8E020D3F8E0300C9403F05E
:10291800040307930323079A0B93CDE9080108A939
:10292800274805F0EBFE48F23712022308A925488C
:102938000C94CDE90823CDE90A6705F0DFFE4CF2D7
:102948000372022308A920480C94CDE90823CDE995
:102958000A6705F0D3FE40F2FF62022308A91B486C
:102968000C94CDE90823CDE90A6705F0C7FE4FF6B8
:102978000C72022308A916480C94CDE90823CDE966
:102988000A6705F0BBFE4FF63F02022308A911486B
:102998000C94CDE90823CDE90A6705F0AFFE2022A3
:1029A800022308A90A480C94CDE90A67CDE908234F
:1029B80005F0A4FE0EB0D0BD9C1E062400440258AB
:1029C8000010025800180258000C02580020025843
:1029D800001C0258001402582DE9F04FDFF810844B
:1029E80006460D46144608F114002DED028B89B0F9
:1029F80000AF02F03DFCD8F8143073B3D8F81830A3
:102A0800D8F80490002B43690BBF4FF0080A4FF029
:102A1800100A4FF0020B4FF0040BB9F1000F2AD047
:102A2800A200EA46012B02F1070222F00702ADEBF1
:102A3800020D6846ADEB020D694600F03F81022B9E
:102A480000F0D680002B6FD02246C847D5462437E1
:102A5800BD46BDEC028BBDE8F08FD8F81830002BCE
:102A6800F5D0D8F804904FF0080A4FF0020B4369EC
:102A7800B9F1000FD4D1FB61D8F80030BB61002B4D
:102A8800E5D0D54802F066FC6B46BBF1020F7861D1
:102A980008EE103AFB6900F083816A465146A2EBC2
:102AA800C40295466200EA46B2FBFBF2AAEBC400F8
:102AB80085460AEB8200EE46F861ADEB010DF86938
:102AC8000EEB820CC7F810C0EC46ADEB010D00EB25
:102AD8008201CCF80400CCF8081001EB82013869B7
:102AE800E946CCF80C1000EB8201CCF800A001EB11
:102AF8008202C9E900E0C9E90212012B00F06483EF
:102B0800022B00F06C82002B00F08081620849469D
:102B18006046BB69984718EE103A24379D46BD4673
:102B2800BDEC028BBDE8F08F002C8DD01A46D8ED95
:102B38000B6A9FEDB27A8446331D36F922E00CF118
:102B4800080C07EE90EA33F922E00232F8EEE77A51
:102B5800944267EE877A67EEA67A4CED027A07EE22
:102B680090EAF8EEE77A67EE877A67EEA67A4CED98
:102B7800017AE2D8F9612246C847984ED8ED046A2E
:102B88000020F9692B1D9FED9E7A9FED9E6ADFED6F
:102B98009E5A22E0F4EEC67AF1EE10FAC0F2C8842A
:102BA80047F6FE72D1ED017A45F8202066EEA77A45
:102BB800F4EEC77AF1EE10FA40F2F080F4EEC67A3D
:102BC800F1EE10FAC0F2D58447F6FE7243F82020E1
:102BD8000230083184427FF639AFD1ED007A66EED3
:102BE800A77AF4EEC77AF1EE10FAD3D83246D9E7CD
:102BF800002C3FF429AFD8ED0B6A84469FED787A14
:102C08000022331D8E4656F822100CF1080C07EEF0
:102C1800901A53F822100232F8EEE77A944267EEDF
:102C2800877A67EEA67A4CED027A07EE901AF8EEEC
:102C3800E77A67EE877A67EEA67A4CED017AE2D8F2
:102C480071462246C7F81CE0C847664ED8ED046AAC
:102C58000020F9692B1D9FED6A7A9FED6A6ADFF8FB
:102C680094C120E0F4EEC67AF1EE10FAC0F279844D
:102C78003246D1ED017A45F8202066EEA77AF4EEC7
:102C8800C77AF1EE10FA40F28780F4EEC67AF1EED8
:102C980010FAC0F25E84324643F820200230083130
:102CA80084427FF6D3AED1ED007A66EEA77AF4EED1
:102CB800C77AF1EE10FAD5D86246DAE7002C3FF46D
:102CC800C3AED8ED0B6A86469FED477A4FF0000CED
:102CD800331D56F82C200EF1080E82F40002A2F5DE
:102CE800000207EE902A53F82C200CF1020CF8EEA3
:102CF800E77A82F400026445A2F5000267EE877A5B
:102D080067EEA67A4EED027A07EE902AF8EEE77A99
:102D180067EE877A67EEA67A4EED017AD9D8F9611F
:102D28002246C847314ED8ED046A0020F9692B1DA8
:102D38009FED337A9FED336ADFF8BCC01FE0F4EEF5
:102D4800C67AF1EE10FAC0F2FC833246D1ED017A70
:102D580045F8202066EEA77AF4EEC77AF1EE10FA6D
:102D680018D9F4EEC67AF1EE10FAC0F2DA833246D8
:102D780043F820200230083184427FF667AED1ED57
:102D8800007A66EEA77AF4EEC77AF1EE10FAD6D892
:102D98006246DBE76246EBE762467DE7324615E7C7
:102DA800A100D6466208073121F00701ADEB010DFD
:102DB800EA46ADEB010D6946ADEB0E0D0AEB82005C
:102DC800EC46ADEB0E0D01EB8202F861E946CCE969
:102DD80000A0C9E9001290E6F01E06240280FFFF59
:102DE800000000300082FF7F0000003482FF7F0077
:102DF800D81E0624007E00807E0080FF0000003878
:102E080004FF7FBF04FF7F3F00FEFF46002C00F059
:102E1800C982BBF1020FD8F8202000F0FA82796944
:102E2800C7F8049002EB810E5FED0C5A8A00DCF8BB
:102E380008100EF104007A611A46DCF80C303B6188
:102E4800331DD7F810903D61FD69C7E902CB8C4668
:102E5800834636F92210D8ED0B7A06EE101A33F9AC
:102E6800221006EE901A3EF92210B8EEC66A07EE56
:102E7800101AF8EEE66A3BF92210B8EEC77A26EE89
:102E8800256A66EEA56A27EE257A26EE276A66EE9B
:102E9800A76A27EE277A07EE901A51080232F8EE51
:102EA800E77A0AEB8100944280ED006A05EB810025
:102EB80067EEA57AC0ED006A0CEB810009EB810191
:102EC80080ED007A98ED0B7A67EE877AC1ED007A8B
:102ED800BFD8D7F804903D69D7E902CB60466208AD
:102EE800BB6949469847D8F828307A69D8ED046A0A
:102EF8001A441FED3D7A1FED3D6A2B1D904602F1E5
:102F0800040A5FED3F5A0022A84ED9E900EC51E0CF
:102F1800F4EEC67AF1EE10FAC0F2C78247F6FE70F8
:102F280045F822000CEB0100D0ED007A66EEA77A96
:102F3800F4EEC77AF1EE10FA4BD9F4EEC67AF1EE58
:102F480010FAC0F2BA8247F6FE70BBF1020F43F8DE
:102F580022002BD0D9F808000844D0ED007A66EE9C
:102F6800A77AF4EEC77AF1EE10FA36D9F4EEC67AFB
:102F7800F1EE10FAC0F2CD8247F6FE7048F8220052
:102F8800D9F80C000144D1ED007A66EEA77AF4EE88
:102F9800C77AF1EE10FA1ED9F4EEC67AF1EE10FAFD
:102FA800C0F2AF8247F6FE714AF82210023294420C
:102FB8007FF6B1AD51080EEB81008900D0ED007AA3
:102FC80066EEA77AF4EEC77AF1EE10FAA0D830468A
:102FD800A6E73046B9E73146E6E73046CEE7002CAB
:102FE80000F0E081BBF1020FD8F8203000F0E18159
:102FF8007A69DCF8081003EB820EC7F80490930096
:10300800DFED6B5A0EF1040000227B61DCF80C3016
:103018003B61331DD7F810903D61FD69C7E902CBCC
:103028008C46834656F82210D8ED0B7A07EE101A14
:1030380053F82210B8EEC76A07EE101A5EF822108D
:10304800F8EEC76A07EE101A26EE256A5BF822101A
:10305800B8EEC77A66EEA56A26EE276A27EE257AC5
:1030680066EEA76A27EE277A07EE901A5108023211
:10307800F8EEE77A0AEB8100944280ED006A05EBEE
:10308800810067EEA57AC0ED006A0CEB810009EBC0
:10309800810180ED007A98ED0B7A67EE877AC1EDB1
:1030A800007ABFD8D7F804903D69D7E902CB6046CB
:1030B8006208BB6949469847D8F828307A69D8ED3C
:1030C800046A1A449FED3E7A9FED3E6A131D9246AC
:1030D800DFF8E4C00022FB612B1D364ED9E9008ED3
:1030E8004EE0F4EEC67AF1EE10FAC0F2FC813046FA
:1030F80045F822000EEB0100D0ED007A66EEA77AC3
:10310800F4EEC77AF1EE10FA49D9F4EEC67AF1EE88
:1031180010FAC0F2EF813046BBF1020F43F82200EB
:103128002AD0D9F808000844D0ED007A66EEA77ACC
:10313800F4EEC77AF1EE10FA35D9F4EEC67AF1EE6C
:1031480010FAC0F2C98130464AF82200D9F80C00BA
:103158000144D1ED007A66EEA77AF4EEC77AF1EE73
:1031680010FA1ED9F4EEC67AF1EE10FAC0F2AD816B
:103178003146F86940F82210023294427FF6CBAC0F
:10318800510808EB81008900D0ED007A66EEA77A35
:10319800F4EEC77AF1EE10FAA3D86046A8E76046C5
:1031A800BAE76146E5E76046CEE700BF0280FFFF69
:1031B800000000300082FF7F007E008000000034A5
:1031C80004FF7FBF04FF7F3F002C00F0EB807A698B
:1031D8000021D8F82030C7F8109003EB820ED7F8FA
:1031E8001C909300FD610EF104021FED0C6A7B61D7
:1031F800331D154656F821204808D8ED0B6ABBF157
:10320800020F82F40002A2F5000207EE902A53F89A
:10321800212082F40002B8EEE77AA2F5000227EE38
:10322800067A07EE902A0AEB8002F8EEE77A27EE94
:10323800267A67EE867A82ED007A09EB80024FEAF9
:10324800800067EEA67AC2ED007A27D05EF82120CA
:1032580082F40002A2F5000207EE902A55F8212018
:1032680082F40002B8EEE77AA2F5000227EE067AA9
:1032780007EE902ADCF80820F8EEE77A024427EEF9
:10328800267A67EE867A82ED007A98ED0B7ADCF87A
:103298000C2067EE877A0244C2ED007A02318C4234
:1032A800A8D8D7F8109060466208BB694946FD69FE
:1032B8009847D8F828307A69D8ED046A1A441FED7F
:1032C800407A1FED406A131D9246DFF8C4C20022FF
:1032D800FB612B1DAB4ED9E9008E4EE0F4EEC67AA9
:1032E800F1EE10FAC0F2C580304645F822000EEB28
:1032F8000100D0ED007A66EEA77AF4EEC77AF1EE17
:1033080010FA49D9F4EEC67AF1EE10FAC0F2BF808D
:103318003046BBF1020F43F822002AD0D9F8080042
:103328000844D0ED007A66EEA77AF4EEC77AF1EE9B
:1033380010FA35D9F4EEC67AF1EE10FAC0F2AE8082
:1033480030464AF82200D9F80C000144D1ED007A41
:1033580066EEA77AF4EEC77AF1EE10FA1ED9F4EE0B
:10336800C67AF1EE10FAC0F28B803146F86940F85F
:103378002210023294427FF6CEAB510808EB81004E
:103388008900D0ED007A66EEA77AF4EEC77AF1EEFE
:1033980010FAA3D86046A8E76046BAE76146E5E7B1
:1033A8006046CEE7224649466046BB699847FFF724
:1033B800B2BBC7F810B0002298ED0B6A331DDFEDE1
:1033C800726AD7F81CB0786956F8221007EE901A7E
:1033D80053F82210B8EEE77A07EE901A5108023235
:1033E800F8EEE77A27EE267A0AEB810E94420BEB89
:1033F800810167EEA67A27EE067A67EE867A8EED69
:10340800007AC1ED007ADFD88300D7F810B07B616D
:103418004DE61A46C7F810B098ED0B6A331DDFED7C
:103428005B6AD7F81CB0786936F9221007EE101AD3
:1034380033F9221007EE901AB8EEC77A5108023213
:10344800F8EEE77A27EE267A0AEB810E94420BEB28
:10345800810167EEA67A27EE067A67EE867A8EED08
:10346800007AC1ED007ADFD88300D7F810B07B610D
:1034780034E5F0EE675AFEEEE45A15EE900A34E7AA
:10348800F0EE675AFEEEE45A15EE901A6EE7F0EE8B
:10349800675AFEEEE45A15EE900A3AE7F0EE675ADC
:1034A800FEEEE45A15EE900A4BE767EEA57AFDEEBC
:1034B800E77A17EE900A00B232E567EEA57AFDEEDC
:1034C800E77A17EE900A00B23FE5F0EE675AFEEE93
:1034D800E05A15EE901A4CE6F0EE675AFEEEE05A06
:1034E80015EE900A30E6F0EE675AFEEEE05A15EE59
:1034F800900AFDE5F0EE675AFEEEE05A15EE900AE6
:103508000AE667EEA57AFDEEE77A17EE901A09B299
:103518004AE567EEA57AFDEEE77A17EE900A00B263
:103528002CE5F0EE675AFEEEE45A15EE902A1FE4F9
:1035380067EEA57AFDEEE77A17EE902A12B2FFF74A
:1035480031BBF0EE675AFEEEE45A15EE902AFFF70B
:10355800FDBBF0EE675AFEEEE05A15EE902AFFF733
:103568009BBBF0EE675AFEEEE05A15EE902AFFF785
:1035780080BB67EEA57AFDEEE77A17EE902A12B2C5
:10358800FFF724BB82FF7F000000003000000038F6
:103598007E0080FF30B5154C154685B0046004F1F7
:1035A800080C01AB07C98CE80700D4ED047AF5EEE6
:1035B800C07A83E80700F1EE10FA14DDF7EE006A2E
:1035C80086EEA77A84ED0B7A6DB1204640F8145F39
:1035D80001F04EFE064903690020064AE161626275
:1035E800E36005B030BD012005B030BDD81E06240B
:1035F800002000300000003000680830704700BF2D
:10360800B1F5807F03680A4628BF4FF48072B1F590
:10361800807F9A6094BF00200120704700681430B2
:1036280001F086BE30B5046883B008480D46A3682B
:10363800626AE1699B00009004F1140001F01AFE2F
:103648000020C4E9000503B030BD00BFE12900082F
:10365800024B0022C3E90522704700BFD81E06248A
:10366800F6EE006A4FF0000C60EE207A0160B7EECB
:10367800007A0021C0F80CC067EEA67A80ED020A35
:1036880080ED047AC0F814C0C7EE276A0276437644
:103698008176C0ED070AC0ED016A70470268037EB3
:1036A800128807EE902AFBEEC87A1BB1B7EE007AB3
:1036B80077EE677AD0ED056A90ED047A77EEE67AD0
:1036C800437E67EE877A0BB1F1EE677A90ED030AD5
:1036D80090ED017A77EEC07AA7EE270A80ED030A0B
:1036E800704700BF837E80ED020A73B9D0ED077A78
:1036F80027EE800AF6EE007AB7EE007A20EE270A67
:10370800C7EE007AC0ED017A7047DFED017AEFE786
:103718006F12033B10B584B004460C30ADF80C10A2
:10372800ADF8082082804FF48072A181ADF8043092
:10373800E281628200F072FC04F1100000F06EFC7D
:103748009FED060A0199204600F026F900224FF65F
:10375800FF73A261A38204B010BD00BF0000000087
:1037680070B5067D04460C30760000F033FD657DAB
:10377800034676B26D0004F110001E436DB2267543
:1037880000F028FD05432046657500F019F9237DF2
:10379800002203F00303A261022B06D0627D02F02F
:1037A8000302022A00D133B170BD637D9B07FBD1B0
:1037B8000123A36170BD4FF0FF33A36170BD00BF4B
:1037C800DFED167A8C46B4EE670A10B504468646D5
:1037D800F1EE10FA2DED028B80ED080A48BFB0EE2D
:1037E800670AC0ED090AB0EE608A80F83420BCE8A8
:1037F8000F00AEE80F009CE80F008EE80F000EF0F7
:10380800E7FEF0EE407AB0EE480AC4ED0A7A0EF010
:10381800DFFE84ED0B0ABDEC028B10BD95BFD633DD
:1038280090F8343010B50446032B4BD8DFE803F08A
:103838003B2A1502FFF732FF60EE006AD4ED087AE2
:1038480094ED097A26EE800A37EE677AE0EE077A79
:10385800C4ED0C7AB0EE670A10BDFFF71FFF94EDB8
:103868000A7AD4ED0B7A77EEC77AA0EE277AB0EE13
:10387800470A0EF03BFEF0EE407A84ED0C0AB0EEFB
:10388800670A10BDFFF70AFFD4ED087A94ED097AAC
:1038980020EE000A37EE677AE0EE077AB0EE670AA4
:1038A800C4ED0C7A10BDFFF7F9FED4ED087A94ED5B
:1038B800097A37EE677AE0EE077AB0EE670AC4ED68
:1038C8000C7A10BDD0ED0C7AC4E700BF30B585B0D6
:1038D80004469FED110A9DF82050ADF80C1003998D
:1038E800ADF808202A46ADF804308DED000A0CF03A
:1038F80083FA9DED000A2A46029904F11C000CF097
:103908007BFA9DED000A2A46019904F1380005B0BA
:10391800BDE830400CF070BA00007A4410B52DEDC7
:10392800028BF0EE608A0446B0EE418A0CF088FA09
:1039380004F11C00B0EE680A0CF082FAB0EE480AF6
:1039480004F13800BDEC028BBDE810400CF078BAE9
:1039580038B50C46054691ED000A0CF071FA94ED65
:10396800010A05F11C000CF06BFA94ED020A05F14E
:103978003800BDE838400CF063BA00BF10B5044603
:103988000CF070FA04F11C000CF06CFA04F1380029
:10399800BDE810400CF066BA012282B00346C1F3BC
:1039A800072CADF80410417000210270104483F810
:1039B80002C09A80D9709A7102B000F02FBB00BF84
:1039C80038B54479054683790130640064B253B14F
:1039D80000F000FCB0FA80F35B092343DBB27F2BD5
:1039E8006B7108D038BD00F0F5FB43B22343DBB25E
:1039F8007F2B6B71F6D102F0DFFB07EE900AF8EE31
:103A0800677AC5ED027A38BD82B04FF0000C032307
:103A1800ADF80410BDF8042080F810C0028043807F
:103A280002B070472DE9F04FBE4E00258FB0BE4C56
:103A3800037006F14003426007460192884620223F
:103A480029463046C4F85831C4F85461CDE90355C5
:103A5800CDE90555CDE90755CDE90955CDE90B5512
:103A68000FF04AF92022294604F59970C4F821512B
:103A7800C4F82551C4F82951C4F82D510FF03CF968
:103A8800019B84F8385284F820317A68002A5FD084
:103A98002B464146B64604F5907599464FF0010A03
:103AA80003EB0310D1F800B0D1F804800133D1F84A
:103AB80008C02218CE6844F800B0C2F80480C2F8E2
:103AC80008C0D660087C2EF8029B10740A7C05F8A2
:103AD800012F002A69D07A68113184F838A29A42F5
:103AE800DED84FF4802291489DF8043008214FF029
:103AF80000084FF00009C4F874310023C4E95702E4
:103B08000122C4F8643184F87031C4E95A2194F868
:103B18003812C4E9608981B3C4F88821002284F886
:103B2800713184F878313B78C4E96322A3B3012268
:103B380000200121013B84F89421C4E96801082B85
:103B48002CD8DFE803F0ABB0B5BABFC4C9CFD600F4
:103B58009DF804300121C4F86421C4F874314FF48D
:103B6800802384F87021714AC4E95723082300226E
:103B7800C4E95A130023C4E960230123002284F80E
:103B88007131002384F878310323C4F888313B78F5
:103B9800C4E96322002BCAD184F89431644803F045
:103BA8005FFB034638B1FFBEFEE77A6811319A42DF
:103BB8003FF676AF95E703A95D48039303F0AEFCA3
:103BC8000546002868D1022240F2FF73CDE9082398
:103BD80000230422CDE90A2394F82031002B00F0B9
:103BE800D5804FF0060921E0022B00F08980012BD7
:103BF80040F0C4809AF80130012B00F0C180002BFE
:103C08004C4B18BF002306A94948CDE9063902F0F4
:103C180053FF002840F0BF80013594F82031EDB201
:103C2800AB4240F2B380444B53F825902FB207EBD8
:103C3800071704EB070A504600F0F0F905EB0513E7
:103C480023441B7C042B7DDC022B00F3918000F0C5
:103C58008D806319002283F81021E35D002BC3D106
:103C68009AF80130062B00F08580072B00F08A8037
:103C7800022B00F09680032B00F09580002B00F0BB
:103C88009680012B00F09180042B00F09280052B88
:103C98002A4B18BF0023B6E7FFBEFEE703224023E6
:103CA800C4E966237AE707226023C4E9662375E737
:103CB8000F228023C4E9662370E71F22A023C4E9EA
:103CC80066236BE73F22C023C4E9662366E77F22A9
:103CD800E023C4E9662361E7FF224FF48073C4E957
:103CE80066235BE740F2FF124FF49073C4E9662342
:103CF80054E740F2FF324FF4A073C4E966234DE75E
:103D08009AF80130042B37D0052B3DD0002B40D03A
:103D1800012B42D0022B42D0032B094B18BF0023A2
:103D280071E700BF00400030081F06240020024051
:103D3800642006240002B025942D01080000B84F25
:103D48000020903603233E1D04EB05084FF0000BBE
:103D5800264488F8103130460BF1010B00F05EF96B
:103D680098F8103104365B45F5DC76E70123EAE77D
:103D78000223E8E7104B46E7104B44E7002342E7ED
:103D88000F4B40E70F4B3EE70F4B3CE70FB0BDE84A
:103D9800F08F0E4B37E7FFBEFEE70D4B33E70D4BB9
:103DA80031E70D4B2FE70D4B2DE70D4B2BE70D4B57
:103DB80029E70D4B27E700BF0800900C1000C01042
:103DC8002000F0148000501D000180210004002A0A
:103DD8000008302E001060320040C03A0080F03EEB
:103DE80000005247000021430000844B38B5094CBD
:103DF80040F2FF724FF0011104F5AE75284603F04A
:103E08003BFB94F82021D4F854112846BDE83840EB
:103E180003F0A6B8081F0624034B0F29D3F8540152
:103E280098BF00EB41007047081F0624214B026829
:103E38009A4200D07047204A00232048D2F8D81070
:103E480030B51F4C41F0200183B0C4F8C0010920EF
:103E580004F5E075C4E971034FF48060C2F8D81026
:103E6800D2F8D8204FF40061C4E9733094F83802CE
:103E780002F02002C4F8D4114FF400519842019284
:103E88002846C4F8D811C4E97833019B14BF00232D
:103E98004FF48073C4F8DC3103F066FD08B1FFBE4F
:103EA800FEE704F5AE73C4F8A851C4F8F83103B0BE
:103EB80030BD00BF002002400044025840000240CC
:103EC800081F0624014804F0C7B800BFC82006240C
:103ED80002682DE9F84F4B4B9A4201D0BDE8F88FA4
:103EE800494D95F83832002BF8D095F82031002B41
:103EF80077D0002405F10C0905F5997605F590773A
:103F0800A04613E003F0010117F811BCA9F108005D
:103F180000F06EF9BBF1010F25D895F82031013476
:103F280009F111090236A2B293422BD917F8012FD1
:103F3800002AF4D0D5F854310021327833F814002F
:103F4800D5F8583103EB041323F8120033880133F2
:103F58009BB233805FFA83FA3A789A42D2D88A467B
:103F6800A6F80080D0E7CAF34001A9F1040000F0E8
:103F78003FF9BBF1020FCAF38001CED0484600F0EA
:103F880037F9CAE7002395F83802204909229842F0
:103F9800C5F8C8314FF48060C5F8C011C5F8C42110
:103FA8004FF400614FF40052C5F8CC3108BF4FF40C
:103FB8008073C5F8D821C5E9740100221448C5E901
:103FC8007732C5F8E42103F0CFFC08B1FFBEFEE765
:103FD80095F82021D5F854110E48BDE8F84F02F0A5
:103FE800BFBF0A4909224FF48060C5F8C831C5E946
:103FF80070124FF400614FF40052C5E97330C5E9FF
:104008007512DAE700200240081F0624400002402B
:10401800C820062464200624704700BF8378022B3A
:1040280030B504468FB037D0032B33D0012B31D0B5
:1040380000230A93E378012B2AD0022B28D00023EF
:104048000B93002320460C9302F0B0FB0546204654
:1040580002F0B4FB23780990082B13D8DFE803F0AB
:104068001F3245586B7E91A40500594BD3F8E020C8
:1040780042F48072C3F8E020D3F8E03003F4807390
:104088000893089B09A9284604F038FB0FB030BDF7
:104098000B93D6E70A93CDE711230A93CAE74C4B53
:1040A80009A92846D3F8E02042F00102C3F8E0202D
:1040B800D3F8E03003F001030093009B04F01EFBEB
:1040C8000FB030BD424B09A92846D3F8E02042F092
:1040D8000202C3F8E020D3F8E03003F002030193B2
:1040E800019B04F00BFB0FB030BD394B09A92846E2
:1040F800D3F8E02042F00402C3F8E020D3F8E0301F
:1041080003F004030293029B04F0F8FA0FB030BDE9
:104118002F4B09A92846D3F8E02042F00802C3F83B
:10412800E020D3F8E03003F008030393039B04F086
:10413800E5FA0FB030BD264B09A92846D3F8E02090
:1041480042F01002C3F8E020D3F8E03003F0100387
:104158000493049B04F0D2FA0FB030BD1C4B09A99C
:104168002846D3F8E02042F02002C3F8E020D3F834
:10417800E03003F020030593059B04F0BFFA0FB06D
:1041880030BD134B09A92846D3F8E02042F040027D
:10419800C3F8E020D3F8E03003F040030693069B11
:1041A80004F0ACFA0FB030BD094B09A92846D3F882
:1041B800E02042F08002C3F8E020D3F8E03003F0BA
:1041C80080030793079B04F099FA0FB030BD00BF36
:1041D8000044025838B5054602F0E8FA0446284675
:1041E80002F0ECFA01462046BDE8384004F08EBCE7
:1041F80070B506460D4602F0D9FA0446304602F07C
:10420800DDFA2A1E0146204618BF0122BDE870408B
:1042180004F082BC0023122270B586B0CDE90223D7
:1042280004930368032B01D804230593061D841DFA
:10423800304602F0BBFA0546304602F0BFFA0346A4
:1042480001A92846019304F059FA204602F0AEFA73
:10425800034620461C4602F0B1FA01A9034620464F
:10426800019304F04BFA06B070BD00BF634A0368BF
:10427800934210B58CB028D0614A934258D0614A15
:10428800934200F09480604A934201D00CB010BD74
:104298005E4C5F48D4F8E03043F00203C4F8E030E5
:1042A800D4F8E03003F002030A930A9BFFF7B2FF49
:1042B800D4F8F43043F08003C4F8F430D4F8F43080
:1042C80003F080030B930B9BE0E7504C5148D4F864
:1042D800E03043F00203C4F8E030D4F8E03003F0F3
:1042E80002030193019BFFF795FFD4F8E830002201
:1042F8001F2043F400131146C4F8E830D4F8E8301E
:1043080003F400130293029BD4F8D83043F001035E
:10431800C4F8D830D4F8D83003F001030393039BD2
:1043280003F070F91F200CB0BDE8104003F0A8B9E5
:10433800364C3948D4F8E03043F08003C4F8E03014
:10434800D4F8E03003F080030493049BD4F8E03001
:1043580043F00203C4F8E030D4F8E03003F002037D
:104368000593059BFFF756FFD4F8E830002221207B
:1043780043F480031146C4F8E830D4F8E83003F475
:1043880080030693069BD4F8D83043F00103C4F8A1
:10439800D830D4F8D83003F001030793079B03F013
:1043A80031F921200CB0BDE8104003F069B91B4871
:1043B800FFF730FF154B00224820D3F8E84011469C
:1043C80044F40004C3F8E840D3F8E84004F40004D7
:1043D8000894089CD3F8D84044F00104C3F8D840A6
:1043E800D3F8D83003F001030993099B03F00AF9C5
:1043F80048200CB0BDE8104003F042B9005400401A
:1044080000580040005C0040001C0058004402585E
:10441800D02306244821062420220624F822062434
:104428002DE9F0431A4B87B000254FF010099E463E
:10443800EC46184BFF22E04667461A700EF1180644
:104448000EF13004CDE90055CDE90255ADF80090E4
:10445800BCE80F00CDE90455AEE80F009CE8030066
:104468000095ADF800908EE80300B8E80F000FC67D
:104478009CE803000095ADF8009086E803000FCF94
:104488000FC49CE8030084E8030007B0BDE8F0838C
:10449800080000244421062410B5EFF3108472B6F6
:1044A800084B1A78120602D504B962B610BD1B78FB
:1044B800D82205485BB202FB0300143003F0CCFDA0
:1044C800F2E700BF4421062448210624014805F0EC
:1044D800BBB900BFD4210624014805F0B5B900BF17
:1044E800AC220624014805F0AFB900BF8423062496
:1044F8002DE9F0430F68D8243F4D85B007FB04F43D
:10450800032F05EB0403036040DCCB680E46012B48
:104518003CD84DD04FF0D808B646DFF8FC9008FBE1
:104528000758BEE80F00C446ACE80F00DEF80030BC
:104538000DF1100ECCF80030D8F808C099E80F003B
:104548000EE90F000EEB8703BCF1010F53F8103C86
:10455800C8F88C3031D0BCF1020F42D0BCF1000F4A
:1045680035D0317C8C34D823002201202C4403FB25
:1045780007534900C3E92602C3F894102046C3E94B
:104588002822C3E92A2204F051FF18B1012005B0FE
:10459800BDE8F0830146204605F062F90028F5D110
:1045A8000146204605F086F9003818BF0120EEE7DD
:1045B8000B7C103B672BADD9E8E701F061FF0F4B8F
:1045C80098420CBF0E4B0F4BC8F89030C9E701F06A
:1045D80057FF0A4B98420CBF0B4B0C4BC8F8903056
:1045E800BFE701F04DFF054B98420CBF084B094B44
:1045F800C8F89030B5E700BF48210624000E270709
:104608002D0FB0303211D0205F4390608A62E030C5
:10461800200BA0101A098010182D01082DE9F0416F
:10462800D0F8008082B00D4617461E4608F18C046B
:10463800204605F011F92028FAD1D8F80C3073B9C2
:104648006D002046089C33463A46A9B2009404F00F
:1046580043FF003818BF012002B0BDE8F081089B75
:1046680032463946204605F00BF8F2E7044B102293
:104678001A7483F8E82083F8C02183F898227047D9
:104688004821062430B5002395B04FF480710622E6
:1046980004460B9306921393CDE90C13CDE90E3320
:1046A800CDE9113301F0EEFE07282BD004F11005F7
:1046B80041F2883206A9284605F00EFF28B10123E9
:1046C800184684F85C3015B030BD0222022306A9D2
:1046D8002846CDE9002310220123CDE90223002238
:1046E8004FF48003CDE9042305224FF0807306922E
:1046F8006A460F9341F2883306F05AF80028DED153
:1047080015B030BD0323012084F85C3015B030BDEE
:1047180070B50023A4B04FF080724FF48075044642
:10472800ADF806300D93CDE910320122CDE90E53D4
:10473800CDE91223CDE91433002943D0F02300F149
:10474800100508AEADF80630C02341F28832314674
:104758002846089305F0C0FE28B10123184684F8BE
:104768005C3024B070BD41F288320DF10601284654
:1047780005F01CFF03460028EFD105224FF4807195
:104788001E93284616924FF080721B9321931F9216
:1047980002AA9FED1F7BCDE91C13CDE922338DEDD5
:1047A800027B9FED1D7B41F2883316A98DED047BBA
:1047B8009FED1B7B8DED067B05F0FAFF0028CCD121
:1047C80024B070BD00F1100508AE612341F28832B3
:1047D80031462846089305F07FFE0028BDD141F2F6
:1047E80088320DF10601284605F05EFF0028B4D195
:1047F800BDF80630204623F0780343F04003ADF8B7
:104808000630FFF73FFF00289ED0A6E7AFF30080F1
:10481800000000000100000010000000010000007E
:1048280000000000000040002DE9F04F00234FF485
:10483800807501264FF0807804462DED028BABB0D1
:104848008DF8073013932193299314950E96CDF87C
:104858005C80CDE91533CDE91863CDE91A33CDE98C
:104868002253CDE92433CDE9273306231C9301F0E5
:1048780009FE072808D004F1100741F288321CA964
:10488800384605F029FE40B10123184684F85C300B
:104898002BB0BDEC028BBDE8F08F4FF0020A4FF051
:1048A800020B4FF0050941F2883308AA1CA93846C3
:1048B800CDF89480CDF870909FED2D8BCDE908ABA5
:1048C8004FF0000A4FF4800B8DED0A8BCDE90CAB4D
:1048D80005F06EFF0028D7D141F2883238460EA97C
:1048E80005F0FAFD0028CFD1402341F288320DF1BE
:1048F800070138468DF8073005F058FE0028C3D167
:1049080041F288330EA902AA3846CDF83890CDF87E
:104918005C809FED197B8DED048BCDE906AB8DEDA9
:10492800027B05F045FF03460028ADD1CDF8709015
:104938004FF00109CDF894804FF00008219308AAA0
:1049480029931CA938462295CDE92333CDE927338D
:1049580041F288338DED0A8BCDE90CABCDE908899E
:1049680005F026FF002893D0304684F85C608FE776
:10497800100000000100000040000000400000009E
:104988002DE9F043624CA3B00D46046001F07AFDB6
:10499800072800F0A980286823466968AA6807C321
:1049A8001E46AB8926F8043B3046257B677B05F01D
:1049B80075FDE0B9574B012D4FF00108E061236107
:1049C80014BF4FF480134FF40003C4E9058893FA29
:1049D800A3F3B3FA83F34FF48079013BC4F824902E
:1049E800C4E90B003046236205F0ECFC38B1012223
:1049F800134684F85C20184623B0BDE8F08366238C
:104A08000B90139041F2883206A90693CDE90C90D9
:104A1800CDE90E00CDE91100304605F05DFD002816
:104A2800E5D1992341F2883206A93046069305F06C
:104A380053FD0028DBD105231C9019906A46149376
:104A48004FF08073219014A91D9341F288339FED94
:104A58002A7BCDE91A90CDE91F008DED007B9FEDF3
:104A6800287B30468DED027B9FED277B8DED047B07
:104A780005F09EFE0028BAD129462046FFF748FED9
:104A88000028B4D12046FFF7CFFE03460028AED158
:104A9800002FB0D1189330460027002606AA14A983
:104AA800CDF86890CDE91F33EB2314934FF440639E
:104AB8001B934FF4005317934FF440431C93A023C8
:104AC8001693062319934FF0805321934FF04073A8
:104AD800CDE906671D9305F0E3FE034600288AD05A
:104AE800434684F85C8086E701230322184684F84D
:104AF8005C2023B0BDE8F083000000000100000046
:104B0800100000000100000000000000000040004C
:104B1800A8240624005000522DE9F04F8FB0414BD5
:104B28000024026800AF9A427C63C7E90944C7E9D8
:104B38000B4403D03C37BD46BDE8F08F3A4B40F6F6
:104B480009213A48EB46D3F8D42007F11C0607F1AF
:104B5800220A4FF0020942F480424FF00308C3F8DA
:104B6800D420D3F8D42002F48042BA60BA68D3F8CB
:104B7800E02042F04002C3F8E020D3F8E02002F041
:104B88004002FA60FA68D3F8E02042F02002C3F845
:104B9800E020D3F8E02002F020023A613A69D3F825
:104BA800E02042F01002C3F8E020D3F8E02002F041
:104BB80010027A617A69D3F8E02042F00202C3F861
:104BC800E020D3F8E030F86103F002033984BB61D8
:104BD800174B7B60BB697B6853F8040F7B6001F05F
:104BE800E5FD7B680546186801F0E8FD16F8013B0D
:104BF800786207F124012846C7F830807B63C7E94B
:104C08000A9403F07BFD5645E5D100225C2011464D
:104C180002F0F8FC5C2002F033FD3C37DD46BD466F
:104C2800BDE8F08F00500052004402580A0A0909F2
:104C380004250624114B02689A4200D07047104A96
:104C480070B5D2F8D4300F4C23F4804304F1180621
:104C5800C2F8D43054F8040F01F0A8FD05462068C6
:104C680001F0ACFD0146284603F088FEB442F1D1BC
:104C78005C20BDE8704002F011BD00BF005000523A
:104C88000044025804250624014805F095BE00BFDB
:104C9800B8240624084B1A1D981D03F1080110B406
:104CA8009C1C9A6603F10A02C3E91834C3E91B0184
:104CB8005DF8044B5A677047A824062438B5036882
:104CC80071B9026A00F1280500F5AC74012A0CBF1D
:104CD800002140218BBB1D4B5722C0F858310DE0F5
:104CE800426A00F1C00500F5E874012A0CBF0021F2
:104CF8004021EBB1164B5A22C0F8D0310023204690
:104D0800C4E901214FF480524FF48061636262610B
:104D18004FF48042C4E903314FF48073C4E9062399
:104D28004FF40033236202F01FFE58B1FFBEFEE7C6
:104D3800084B5822C0F8D031E0E7074B5922C0F899
:104D48005831DBE7C5E92044A56338BD10000240AF
:104D58007000024028000240580002402DE9F0434C
:104D6800821D05468BB0031D05F10A010830CDE907
:104D7800052305F10C02AB69CDE907010992002B67
:104D88003DD0EB69B3FA83F84FEA581801230222A1
:104D980005AE0AAF4FF006090393CDE9012356F893
:104DA800044B2B792278934216D02B68F3B1012B50
:104DB80002D1F2B10A230493204601F0FFFC034616
:104DC8002046009301F0F2FC694603F097FCBE42CE
:104DD800E5D10BB0BDE8F083697963789942E4D1F5
:104DE800B8F1000FF3D02B68002BE0D1CDF810906C
:104DF800E2E76378022B14BF0A230823DBE74FF0AE
:104E08000108C3E7534A0368934230B505468BB09F
:104E180055D02032934252D04F4A934204D0203288
:104E2800934201D00BB030BD4C4C4D48D4F8E03023
:104E380043F00103C4F8E030D4F8E03003F0010394
:104E48000593059BD4F8E03043F00803C4F8E0303C
:104E5800D4F8E03003F008030693069BD4F8E0305A
:104E680043F04003C4F8E030D4F8E03003F04003E6
:104E78000793079BD4F8F03043F40003C4F8F030EC
:104E8800D4F8F03003F400030893089BFFF766FF9B
:104E9800D4F8D830296843F001032F4A3048C4F8C1
:104EA800D830891AD4F8D83018BF012103F001038B
:104EB8000993099B0BB0BDE83040FFF7FFBE274CB4
:104EC8002848D4F8E03043F00103C4F8E030D4F8BF
:104ED800E03003F001030093009BD4F8E03043F086
:104EE8001003C4F8E030D4F8E03003F01003019365
:104EF800019BD4F8E03043F04003C4F8E030D4F824
:104F0800E03003F040030293029BD4F8F03043F4FE
:104F18008003C4F8F030D4F8F03003F4800303932E
:104F2800039BFFF71BFFD4F8D830296843F001032F
:104F3800084A0C48C4F8D830891AD4F8D83018BFB1
:104F4800012103F001030493049B0BB0BDE830403A
:104F5800FFF7B4BE04580140045C01400044025805
:104F68007C27062420250624014803F075B800BFD5
:104F780078260624014803F06FB800BFF0260624FF
:104F8800014803F069B800BFD4280624014803F09B
:104F980063B800BF4C2906241A4A0368934210B428
:104FA8000BD02032934208D0174A934216D02032B1
:104FB800934213D05DF8044B7047144B0022D3F88A
:104FC8005442C3F85822002CF4D0D3F84802D3E94D
:104FD800931223465DF8044B520818470B4B0022E6
:104FE800D3F8B044C3F8B424002CE3D0D3F8AC24ED
:104FF800D3F8A814D3F8A404520823465DF8044B48
:10500800184700BF04580140045C014020250624CD
:10501800184A0368934210B40BD02032934208D048
:10502800154A934217D02032934214D05DF8044BAE
:105038007047124BD3E994245208C3F85822002C25
:10504800F4D0D3E99201234601EB820100EB820000
:105058005DF8044B1847094BD3F8AC24D3F8B04497
:105068005208C3F8B424002CE0D0D3F8A814D3F81D
:10507800A404E8E704580140045C01402025062404
:105088002DE9F04F0C684FF41776754F87B004FB85
:1050980006F6012C07EB060AC0F800A000F3A08072
:1050A8000D468E464FF00008D44669A3D3E9002385
:1050B80069A1D1E90001CDE9022306ABCAF8508203
:1050C80003EB8403CDE9040153F810BC53F8083C02
:1050D800CAE992880193BEE80F00ACE80F00BEE869
:1050E8000F00ACE80F00019B9EE80300CAF828B047
:1050F800CAF8C0308CE803002B69042B0CD8DFE811
:1051080003F0737D879103004FF41773554A03FB2F
:1051180004739A64C3F8E020AA692B6A002A43D072
:10512800002B4FF4177308BF022203FB047318BF48
:105138000322DA6201221A63EA696B6A002A40D103
:10514800191E4FF4177318BF012103FB0473C3E939
:1051580031126B69022B05D8434A12F80380434A7F
:1051680052F823904FF4177306F128004246494637
:1051780003FB04740023384463646363E365C4F881
:10518800DC30C4F8CC30C4F8F430C4E90F33C4E9D7
:105198001533C4E93533C4E93B33022307F0AEFCC9
:1051A800002849D0FFBEFEE7191E4FF4177318BF39
:1051B800012103FB0473C3E90B12EA696B6A002A35
:1051C800BED0002B4FF4177308BF022203FB0473F1
:1051D80018BF0322C3F8C4200122C3F8C820B8E7C7
:1051E800012007B0BDE8F08F4FF417734FF4FA525F
:1051F80003FB04739A64C3F8E0208DE74FF4177338
:105208004FF47A5203FB04739A64C3F8E02083E7EF
:105218004FF417734FF4FA4203FB04739A64C3F80C
:10522800E02079E74FF417734BF6803203FB0473E1
:105238009A64C3F8E0206FE706F1C00002234246F3
:105248004946384407F05AFC0028CAD0FFBEFEE79A
:1052580004580140045C014024580140245C01408A
:105268002025062400770100D42D0108D82D010837
:105278000068704770B5046882B015460E46C4F8D9
:105288005032C4E99212069AC4F85422A269012A3B
:1052980026D0626A012A9AB211D0294604F1C000C8
:1052A800019207F0E7FC236A019A012B10D02946E6
:1052B80004F1280007F0DEFC002002B070BD04F104
:1052C800C000019207F068FD236A019A012BEED114
:1052D800314604F1280007F05FFD002002B070BDE0
:1052E800226A012A9AB211D0294604F128000192B3
:1052F80007F0C0FC636A019A012B10D0294604F11B
:10530800C00007F0B7FC002002B070BD04F128000F
:10531800019207F041FD636A019A012BEED13146F3
:1053280004F1C00007F038FD002002B070BD00BFD6
:1053380003681B69042B05D8044A02EB830393ED29
:10534800000A70479FED020A704700BFE42D01086C
:1053580000803B470368D3F858027047F0B5002334
:1053680087B0022204460493CDE9022390F8202254
:10537800D0F824320B2A4FEA430525D194F822228B
:105388000B2A02D1002007B0F0BD49496B1C4948DF
:1053980051F8233045780178187894F823628842C8
:1053A8006AD0824278D0D87803F1030C81426FD05A
:1053B800824279D0987903F1060C884270D08242F3
:1053C80033D0012007B0F0BD394B3A4853F82530A7
:1053D80001784678187894F821C281423ED08242FA
:1053E80042D0D87803F1030E814241D082424BD09B
:1053F800987903F1060E884242D08242E1D1DB79E6
:105408006345DED1734604F508769B7830460593EC
:1054180001F0CCF9034630461E4601F0CFF901A948
:105428000190304603F06AF9A8E7DB79B342C8D1A6
:10543800634604F222249B782046059301F0B6F9CE
:10544800034620461C4601F0B9F9034601A9204647
:10545800019303F053F9002007B0F0BD93F801E081
:10546800B645BED08242BCD158786045B9D1CAE7AA
:105478001F79B742BAD1BBE75F78AF4291D192E7C3
:10548800D979B142B9D19CE718796045B0D1B9E76B
:105498001F79AF428CD18DE75878B04283D1C8E7E5
:1054A800D979A9428BD18CE71879B04282D1BFE76C
:1054B8006C00002468000024826F12682DE9F04116
:1054C8005268C0B0D0E94234591E9A1A1C1B0A40CF
:1054D8001444B4FBF3F103FB1144A34248D3D0F8BE
:1054E80010610546D6F80031D6F80411013B5B1A65
:1054F800D6F80411DBB2A34294BFC9180919C6F83B
:105508000411D6F80431B3F5807F05D9D6F80431F3
:10551800A3F58073C6F80431C5F80C21D6F800212C
:10552800A718B7F5807F24D9C2F58078B118D2F5CD
:10553800807223D1444502D0B4EB080222D1FFB2D5
:1055480005F58C78C6F80071D5F81C022618B6F552
:10555800807F8CBFC0F580772746CFB9BC4201D089
:10556800E21B1BD1F6B2C5F81C6240B0BDE8F08161
:10557800FEE7B1182246002CE1D0A04668460DF09F
:10558800ADFBD7E70DEB080031460DF0A7FBD6E7DA
:1055980040443A4669460DF0A1FBDFE70DEB0701F1
:1055A800F6B240460DF09AFBC5F81C6240B0BDE863
:1055B800F08100BF214A0368D0F88810934228D0B0
:1055C800A2F54C42934226D002F58062934224D041
:1055D80002F58062934222D002F58062934220D085
:1055E80002F5444293421ED0A2F51C4293421CD0BD
:1055F80002F5806293421AD0114A934219D10822C7
:10560800104B4FF40F70002100FB023383F8141184
:1056180070470022F4E70122F2E70222F0E70322B2
:10562800EEE70422ECE70522EAE70622E8E707228C
:10563800E6E7002383F81431FFDE00BF00100140C5
:10564800000C0058D82906249C4A036893422DE987
:10565800F04104468EB000F0F380A2F54C4293422C
:1056680000F0F08002F58062934200F0EF8002F5CE
:105678008062934200F0E88002F58062934200F075
:10568800E78002F54442934200F0E480A2F51C4210
:10569800934200F00C8102F58062934200F005818C
:1056A800874A934240F0058108264FF40F78854FCA
:1056B80008FB06F807EB080595F8220201F086F8C2
:1056C80095F8200201F082F8D5F82432082B13D877
:1056D800DFE803F029374553616F7D8B05007A4B6E
:1056E800D3F8F42042F00802C3F8F420D3F8F430D9
:1056F80003F008030893089B2846FFF72FFE0128AC
:105708000FD04FF40F756D4A06FB05F57B597E19CE
:10571800934278D01A6842F010021A600EB0BDE8C1
:10572800F081FFBEFEE7684BD3F8F02042F010028C
:10573800C3F8F020D3F8F03003F010030093009B77
:10574800DAE7614BD3F8E82042F40032C3F8E820E6
:10575800D3F8E83003F400330193019BCCE75A4BAC
:10576800D3F8E82042F48022C3F8E820D3F8E830E0
:1057780003F480230293029BBEE7534BD3F8E8203F
:1057880042F40022C3F8E820D3F8E83003F40023F9
:105798000393039BB0E74C4BD3F8E82042F4801204
:1057A800C3F8E820D3F8E83003F480130493049B8B
:1057B800A2E7454BD3F8F02042F02002C3F8F020CE
:1057C800D3F8F03003F020030593059B94E73E4B94
:1057D800D3F8E82042F08042C3F8E820D3F8E83054
:1057E80003F080430693069B86E7374BD3F8E820FF
:1057F80042F00042C3F8E820D3F8E83003F0004351
:105808000793079B78E70023304A08F18C08C6E91C
:105818002533C6E92833C6E92B332923B844C6E91A
:1058280023234FF480634046C6F89C304FF48073BE
:10583800C6F8A83002F098F8844668B1FFBEFEE7C3
:10584800002632E7012630E703262EE702262CE75A
:1058580004262AE7052628E7C4F878800EA9D6F892
:105868008C20D6F82432DFF868E001EB430813688F
:10587800C6F8C44009AC23F008031360BEE80F0063
:105888000FC4DEF8003062466146238038F9140CF4
:1058980001F0B8FED6F824320EAA02EB430333F91E
:1058A800140C01F0EDFE7B5934E70726FDE60626C9
:1058B800FBE6002393F82232FFDE00BF0010014010
:1058C800000C0058D82906240044025888000240D9
:1058D800282D010810B5264C204607F0D5FB236873
:1058E800DA69D10600D410BD224A93422FD0A2F51E
:1058F8004C4293422DD002F5806293422BD002F5A0
:105908008062934229D002F58062934227D002F543
:105918004442934225D0A2F51C42934223D002F57B
:105928008062934221D0144A93420AD00020DA6957
:10593800D20602D410221A6210BDFFF7BDFD2368FB
:10594800F8E708204FF40F7202FB0040EFE7002051
:10595800F8E70120F6E70220F4E70320F2E7042045
:10596800F0E70520EEE70620ECE70720EAE700BFAE
:10597800D829062400100140000C005810B5274C07
:1059880004F50F7007F080FBD4F83C32DA69D106D1
:1059980000D410BD224A934230D0A2F54C42934223
:1059A8002ED002F5806293422CD002F58062934299
:1059B8002AD002F58062934228D002F544429342ED
:1059C80026D0A2F51C42934224D002F5806293426D
:1059D80022D0144A93420BD00020DA69D20602D4AE
:1059E80010221A6210BDFFF767FDD4F83C32F7E7C2
:1059F80008204FF40F7202FB0040EEE70020F8E7A2
:105A08000120F6E70220F4E70320F2E70420F0E79C
:105A18000520EEE70620ECE70720EAE7D829062468
:105A280000100140000C005810B5274C04F58F6099
:105A380007F02AFBD4F87834DA69D10600D410BD0F
:105A4800224A934230D0A2F54C4293422ED002F51E
:105A5800806293422CD002F5806293422AD002F5EC
:105A68008062934228D002F54442934226D0A2F5A0
:105A78001C42934224D002F58062934222D0144AF9
:105A880093420BD00020DA69D20602D410221A629F
:105A980010BDFFF711FDD4F87834F7E708204FF46C
:105AA8000F7202FB0040EEE70020F8E70120F6E75E
:105AB8000220F4E70320F2E70420F0E70520EEE7F0
:105AC8000620ECE70720EAE7D82906240010014061
